:100000000C942A000C9447000C9447000C94470071
:100010000C9447000C9447000C9447000C94470044
:100020000C9447000C9447000C9447000C94470034
:100030000C9447000C9447000C9447000C94470024
:100040000C9447000C9447000C94CC020C9447008D
:100050000C94470011241FBECFE5D4E0DEBFCDBF16
:1000600010E0A0E6B0E0E2E2FEE002C005900D92F2
:10007000A23DB107D9F720E0A2EDB0E001C01D928A
:10008000A83FB207E1F70E9468020C940F070C9496
:10009000000085BB95989698979A000097988DEEEA
:1000A00092E00197F1F700C00000089585BB959A92
:1000B0009698979A0000979889EF90E00197F1F74A
:1000C00000C0000008958FEF81BB84BB87E893E1F7
:1000D0000197F1F700C0000088E30E9449008CE01E
:1000E0000E94490086E00E94490081E00E94490088
:1000F00080E80E9449000895CF93DF93EC01888146
:10010000882331F021960E94560089918111FBCFFE
:10011000DF91CF91089581E00E94490080E80E941C
:10012000490008958F929F92AF92BF92CF92DF9233
:10013000EF92FF920F931F93CF93DF93CDB7DEB76C
:10014000C35AD1090FB6F894DEBF0FBECDBF8C01E4
:100150007B014A018091EF009091F0008017910798
:1001600079F48091F6009091F7008617970741F493
:100170008091ED009091EE008417950709F430C14D
:100180000A3011058CF480E290E29A83898380E240
:1001900090E09C838B831D82BE016F5F7F4F81EF58
:1001A00090E00E941E0424C0043611057CF480E215
:1001B00090E29A8389831C821B821D82BE016F5F3D
:1001C0007F4F81EF90E00E941E0412C080E290E019
:1001D0009A838983FE01339683E0DF011D928A951D
:1001E000E9F7BE016F5F7F4F81EF90E00E941E0430
:1001F0008DE0E0E6F0E0DE01AF5ABF4F01900D92D6
:100200008A95E1F7E1E5F0E0EC0FFD1F3D9687E010
:10021000DF011D928A95E9F78EE0E4E7F0E0DE0168
:10022000DD9601900D928A95E1F7FE01E55BFF4FA7
:1002300086E0DF01982F1D929A95E9F79EE0E8E8A5
:10024000F0E0DE01999601900D929A95E1F7FE019A
:10025000F796DF011D928A95E9F785E0ECE9F0E079
:10026000DE01AB56BF4F01900D928A95E1F7E5E9AB
:10027000F0E0EC0FFD1F359685E0DF011D928A95B9
:10028000E9F785E0E6EAF0E0DE01AB58BF4F019008
:100290000D928A95E1F7E5E7F0E0EC0FFD1F35964A
:1002A0008BE0DF011D928A95E9F7B59683E490E033
:1002B0008193919383E0DF011D928A95E9F71F9363
:1002C0000F930F2EF6EBCF2EF0E0DF2EF02DDF9206
:1002D000CF925E01B5E8AB0EB11CBF92AF920E9407
:1002E0002504FF92EF92DF92CF926E0185E6C80E51
:1002F000D11CDF92CF920E94250461EF70E0C5010E
:100300000E941304B501CE018B569F4F0E94130427
:10031000BE016B567F4FCE0145960E941E04BE0162
:1003200061567F4FC6010E941304B601CE018B585F
:100330009F4F0E941304BE016B587F4FCE01019660
:100340000E941E04BE016F5F7F4FCE0145960E9442
:1003500013040FB6F894DEBF0FBECDBF8091F60038
:100360009091F700E816F90699F0B4E6EB16F1045F
:1003700044F0BE01675D7F4F89ED90E00E941E044E
:1003800007C0BE016F5A7F4F89ED90E00E941E04A6
:100390008091ED009091EE008816990699F081E029
:1003A0008816910441F4BE01635C7F4F89ED90E0B3
:1003B0000E941E0407C0BE016F5A7F4F89ED90E076
:1003C0000E941E0481E00E944900CE0145960E94D1
:1003D0007C0080EC0E94490089ED90E00E947C0046
:1003E0001093F0000093EF00F092F700E092F60017
:1003F0009092EE008092ED00CD55DF4F0FB6F8944D
:10040000DEBF0FBECDBFDF91CF911F910F91FF9047
:10041000EF90DF90CF90BF90AF909F908F90089516
:1004200080EE87B980EC86B93699FECF349A85B1D3
:1004300090E0089581EE87B980EC86B93699FECFB9
:10044000349A85B190E008958130910591F4643635
:1004500071051CF08BE088BB08954130510519F4FB
:1004600089E088BB08954230510539F48AE088BBA1
:100470000895029711F48BE088BB08958BE087BB49
:1004800081E683BF87B387BBC29A80E28BBF84B704
:100490008F7B84BF78940E94630089EB90E00E9478
:1004A0007C0080EC0E94490088EC90E00E947C0077
:1004B0002FE38DE093E0215080409040E1F700C0B1
:1004C00000000E948B000E9410020E941A020895F0
:1004D0000E943E02BB24BA9401E010E00E94100288
:1004E0008A3F91051CF40E94100201C08B2D8CBF25
:1004F0001093D5000093D4000E9410026C010E945A
:100500001A02EC019093D3008093D200E090D700C0
:10051000F090D800B601DD0C880B990B0E94870380
:1005200022E538EB4EE150E40E94DD020E944F03C9
:10053000DC01CB01A701BE010E9492008091D60090
:100540008823D1F04091D4005091D5006091D20021
:100550007091D30082E090E00E9424021093D800B2
:100560000093D7002FEB87E299E021508040904024
:10057000E1F700C00000B2CF4091D4005091D50007
:100580006091D2007091D300C8010E9424021092A1
:10059000D8001092D700A2CF1F920F920FB60F92E1
:1005A00011248F938091D60080958093D6008F91EF
:1005B0000F900FBE0F901F9018950E94F1020C949F
:1005C000D9030E94D20358F00E94CB0340F029F4D3
:1005D0005F3F29F00C94C20351110C940D040C944C
:1005E000C8030E94EA0368F39923B1F3552391F3FA
:1005F000951B550BBB27AA2762177307840738F092
:100600009F5F5F4F220F331F441FAA1FA9F335D0EE
:100610000E2E3AF0E0E832D091505040E695001CA2
:10062000CAF72BD0FE2F29D0660F771F881FBB1F5C
:10063000261737074807AB07B0E809F0BB0B802D3A
:10064000BF01FF2793585F4F3AF09E3F510578F066
:100650000C94C2030C940D045F3FE4F3983ED4F372
:10066000869577956795B795F7959F5FC9F7880F3A
:10067000911D9695879597F90895E1E0660F771F8C
:10068000881FBB1F621773078407BA0720F0621B1D
:10069000730B840BBA0BEE1F88F7E09508950E9448
:1006A00056036894B1110C940D0408950E94F2034E
:1006B00088F09F5798F0B92F9927B751B0F0E1F023
:1006C000660F771F881F991F1AF0BA95C9F714C0D3
:1006D000B13091F00E940C04B1E008950C940C0428
:1006E000672F782F8827B85F39F0B93FCCF386950C
:1006F00077956795B395D9F73EF490958095709569
:1007000061957F4F8F4F9F4F0895E89409C097FBE5
:100710003EF490958095709561957F4F8F4F9F4FD8
:100720009923A9F0F92F96E9BB279395F69587951C
:1007300077956795B795F111F8CFFAF4BB0F11F4DF
:1007400060FF1BC06F5F7F4F8F4F9F4F16C0882386
:1007500011F096E911C0772321F09EE8872F762FBC
:1007600005C0662371F096E8862F70E060E02AF0FD
:100770009A95660F771F881FDAF7880F96958795E9
:1007800097F9089597F99F6780E870E060E0089511
:100790009FEF80EC089500240A9416161706180699
:1007A0000906089500240A94121613061406050675
:1007B0000895092E0394000C11F4882352F0BB0F06
:1007C00040F4BF2B11F460FF04C06F5F7F4F8F4F69
:1007D0009F4F089557FD9058440F551F59F05F3FA4
:1007E00071F04795880F97FB991F61F09F3F79F053
:1007F00087950895121613061406551FF2CF4695D5
:10080000F1DF08C0161617061806991FF1CF869556
:100810007105610508940895E894BB27662777273A
:10082000CB0197F90895FB01DC010D900020E9F759
:10083000119701900D920020E1F70895FB01DC0172
:1008400001900D920020E1F70895AEE0B0E0EBE2F8
:10085000F4E00C94E6060D891E8986E08C831A83E9
:1008600009838FEF9FE79E838D83AE01475E5F4FC5
:100870006F89788DCE0101960E944704EF81F8853B
:10088000E00FF11F10822E96E4E00C940207ABE01B
:10089000B0E0EDE4F4E00C94D8066C017B018A0131
:1008A000FC0117821682838181FFCCC1CE010196A3
:1008B0003C01F6019381F70193FD859193FF8191AE
:1008C0007F01882309F4BAC1853239F493FD8591FB
:1008D00093FF81917F01853229F4B60190E00E9457
:1008E0003E06E7CF912C212C312CFFE1F315D8F0F7
:1008F0008B3279F038F4803279F08332A1F4232DF1
:1009000020611DC08D3261F0803369F4232D216098
:1009100016C0832D8260382EE32DE4603E2E2AC05F
:10092000F32DF8601DC037FC2DC020ED280F2A30B4
:1009300040F08E32B9F436FC81C1232D2064322E72
:1009400019C036FE06C08AE0989E200D1124922E12
:1009500011C0EAE02E9E200D1124222EF32DF0620C
:100960003F2E08C08C3621F4832D8068382E02C0BB
:10097000883641F4F70193FD859193FF81917F01C2
:100980008111B3CF982F9F7D9554933028F40C5F3D
:100990001F4F9FE399830DC0833631F0833771F089
:1009A000833509F059C021C0F801808189830E5F29
:1009B0001F4F88248394912C530113C02801F2E027
:1009C0004F0E511CF801A080B18036FE03C0692D86
:1009D00070E002C06FEF7FEFC5010E9433064C014B
:1009E0008201F32DFF773F2E16C0280122E0420E30
:1009F000511CF801A080B18036FE03C0692D70E063
:100A000002C06FEF7FEFC5010E9428064C01F32D55
:100A1000F0683F2E820133FC1BC0822D90E08816C7
:100A20009906B0F4B60180E290E00E943E062A9456
:100A3000F4CFF50137FC859137FE81915F01B60156
:100A400090E00E943E0621102A9421E0821A91082B
:100A50008114910471F7E8C0843611F0893641F5AC
:100A6000F80137FE07C060817181828193810C5F3C
:100A70001F4F08C060817181072E000C880B990BF5
:100A80000E5F1F4FF32DFF763F2E97FF09C0909505
:100A90008095709561957F4F8F4F9F4FF0683F2EE7
:100AA0002AE030E0A3010E947A06882E861845C00D
:100AB000853731F4232D2F7EB22E2AE030E025C079
:100AC000932D997FB92E8F36C1F018F4883579F0BF
:100AD000B5C0803719F0883721F0B0C0E92FE06148
:100AE000BE2EB4FE0DC0FB2DF460BF2E09C034FE37
:100AF0000AC0292F2660B22E06C028E030E005C0CB
:100B000020E130E002C020E132E0F801B7FE07C08A
:100B100060817181828193810C5F1F4F06C060816B
:100B2000718180E090E00E5F1F4FA3010E947A0662
:100B3000882E8618FB2DFF773F2E36FE0DC0232D05
:100B40002E7FA22E891458F434FE0BC032FC09C04B
:100B5000832D8E7EA82E05C0B82CA32C03C0B82CE4
:100B600001C0B92CA4FE0FC0FE01E80DF11D80816B
:100B7000803321F49A2D997EA92E09C0A2FE06C0C9
:100B8000B394B39404C08A2D867809F0B394A3FC7F
:100B900011C0A0FE06C0B21488F4280C922C9B1839
:100BA0000EC0B21460F4B60180E290E00E943E06EE
:100BB000B394F7CFB21418F42B1802C0982C212C40
:100BC000A4FE10C0B60180E390E00E943E06A2FEA3
:100BD00017C0A1FC03C088E790E002C088E590E060
:100BE000B6010CC08A2D867859F0A1FE02C08BE2B6
:100BF00001C080E2A7FC8DE2B60190E00E943E06B3
:100C0000891438F4B60180E390E00E943E069A947D
:100C1000F7CF8A94F301E80DF11D8081B60190E0D1
:100C20000E943E068110F5CF222009F442CEB60183
:100C300080E290E00E943E062A94F6CFF60186817B
:100C4000978102C08FEF9FEF2B96E2E10C94F406A0
:100C5000FC010590615070400110D8F78095909587
:100C60008E0F9F1F0895FC0161507040019001108C
:100C7000D8F7809590958E0F9F1F08950F931F931F
:100C8000CF93DF93FB01238121FD03C08FEF9FEF03
:100C90002CC022FF16C0468157812481358142171E
:100CA000530744F4A081B1819D012F5F3F4F3183F1
:100CB00020838C93268137812F5F3F4F3783268394
:100CC00014C08B01EC01FB010084F185E02D099536
:100CD000892BE1F6D80116968D919C911797019674
:100CE00017969C938E931697CE01DF91CF911F910B
:100CF0000F910895FA01AA27283051F1203181F18E
:100D0000E8946F936E7F6E5F7F4F8F4F9F4FAF4F13
:100D1000B1E03ED0B4E03CD0670F781F891F9A1F26
:100D2000A11D680F791F8A1F911DA11D6A0F711DDA
:100D3000811D911DA11D20D009F468943F912AE0E6
:100D4000269F11243019305D3193DEF6CF010895CE
:100D5000462F4770405D4193B3E00FD0C9F7F6CFFF
:100D6000462F4F70405D4A3318F0495D31FD4052C7
:100D7000419302D0A9F7EACFB4E0A695979587955D
:100D800077956795BA95C9F700976105710508953C
:100D90009B01AC010A2E06945795479537952795E8
:100DA000BA95C9F7620F731F841F951FA01D089580
:100DB0002F923F924F925F926F927F928F929F926B
:100DC000AF92BF92CF92DF92EF92FF920F931F9359
:100DD000CF93DF93CDB7DEB7CA1BDB0B0FB6F8940A
:100DE000DEBF0FBECDBF09942A88398848885F844A
:100DF0006E847D848C849B84AA84B984C884DF80BB
:100E0000EE80FD800C811B81AA81B981CE0FD11D9E
:100E10000FB6F894DEBF0FBECDBFED010895F89474
:020E2000FFCF02
:100E22005354533A2052554E4E494E47000000004B
:100E3200000000005354533A204F5645524C4F4144
:100E420044000000000000005354533A204F56451E
:100E52005254454D50000000000000005350443AE7
:100E6200000000000000544D503A00000000000055
:100E720000000000000025640041535349474E4DD5
:100E8200454E54204F4E4500454754313934313890
:020E920000005E
:00000001FF
